:020000040800F2
:10000000C0250020450100084F2D0008512D000893
:10001000552D0008592D00085D2D00080000000036
:10002000000000000000000000000000612D00083A
:10003000632D000800000000652D0008672D0008F2
:100040005F0100085F0100085F0100088D2E0008B5
:100050005F0100085F0100085F0100085F01000800
:100060005F0100085F0100085F0100085F010008F0
:100070005F0100085F0100085F0100085F010008E0
:100080005F0100085F0100085F0100085F010008D0
:100090005F0100085F0100085F0100085F010008C0
:1000A0005F010008B32E00085F0100085F0100082F
:1000B0005F0100085F0100085F0100085F010008A0
:1000C0005F0100085F0100085F0100085F01000890
:1000D0005F010008692D0008C52D0008CD2D00081E
:1000E0005F0100085F0100085F0100085F01000870
:1000F0005F0100085F0100085F0100085F01000860
:100100005F0100085F0100085F0100085F0100084F
:10011000312E00085F0100085F0100085F01000840
:100120005F0100085F0100085F0100085F0100082F
:10013000DFF80CD009F0C2FA004800473D2A000859
:10014000C02500200648804706480047FEE7FEE736
:10015000FEE7FEE7FEE7FEE7FEE7FEE7FEE7FEE777
:1001600047020008310100080CB500200190009002
:100170006C48006840F480306A49086000BF6948F4
:10018000006800F4003000900198401C0190009835
:1001900018B90198B0F5A06FF1D16248006800F479
:1001A000003010B10120009001E000200090009884
:1001B000012843D15C48006840F010005A490860AB
:1001C0000846006820F0030008600846006840F018
:1001D0000200086053484068524948600846406839
:1001E00048600846406840F48060486008464068BF
:1001F00020F47C1048600846406840F4E8104860ED
:100200000846006840F08070086000BF45480068FC
:1002100000F000700028F9D04248406820F0030048
:10022000404948600846406840F00200486000BF0E
:100230003C48406800F00C000828F9D10CBD10B50E
:10024000FFF792FF10BD10B53648006840F001007E
:1002500034490860084640683449084031494860DC
:1002600008460068324908402E4908600846006880
:1002700020F4802008600846406820F4FE004860B2
:100280004FF41F008860FFF7DAFF4FF00060294944
:10029000086010BD10B5002100200022214B5B68D2
:1002A00003F00C0121B1042906D0082928D107E068
:1002B000214B224C236027E01F4B204C236023E07E
:1002C000184B5B6803F47010164B5B6803F48032C4
:1002D000022303EB904022B9194B4343174C236090
:1002E0000DE0104B5B6803F4003323B1144B434320
:1002F000124C236003E0104B4343104C236003E097
:100300000D4B0E4C236000BF00BF064B5B68C3F370
:1003100003130C4CE15C094B1B68CB40074C23607A
:1003200010BD000000100240002002400000FFF855
:10033000FFFFF6FE08ED00E000127A00000000204A
:1003400000093D000400002031490143314A116099
:10035000704770B5002100230F22C47804B32D4CE0
:10036000246804F4E064C4F5E064210AC1F10403E4
:10037000CA40447804FA03F1847814402143090107
:10038000254C0678A155047804F01F050124AC40E3
:1003900005786D11AD0005F1E025C5F8004109E0D3
:1003A000047804F01F050124AC401C4D067876113A
:1003B00045F8264070BD1A4A0A400243154B1B1FE0
:1003C0001A60704739B1134A121D12680243114B6B
:1003D0001B1D1A6006E00F4A121D126882430D4B66
:1003E0001B1D1A607047042808D14FF0E0210969ED
:1003F00041F004014FF0E022116107E04FF0E021ED
:10040000096921F004014FF0E022116170470000FA
:100410000000FA050CED00E000E400E080E100E0FF
:1004200080FFFF1F10B5012000F01AFF002000F030
:1004300017FF10BD2A49086070472949091F086045
:100440007047274984310860704701460020254ADB
:1004500010884FF67F4210400843224A10807047B0
:10046000014600201F4A10884FF680721040084352
:100470001C4A1080704708B500220092194A2C3A95
:100480000092009A02440092009A116008BD08B5DB
:1004900001460020009013482C3800900098084432
:1004A00000900098008808BD0D489C300068C0B2DC
:1004B00070470C480830008840F0010009490831B5
:1004C000088070470648A0300068C0B270470548F1
:1004D0000830008840F00200024908310880704767
:1004E00004860D422C6C004030B943F2DB028100DF
:1004F000A1F1C0410A6005E043F2D2028100A1F1FE
:10050000C0410A606FF07042411C8900A1F1C041F6
:100510000A608100A1F1C041C1F804217047102890
:100520000AD118214FF020421166402151664FF048
:10053000FC319166D16610E01821F74A1160402124
:100540004FF02042C2F884104FF0FC31F24A0832DA
:1005500011604FF02042C2F88C1070471820EE490D
:100560002031086000200906C1F8A4004FF0FC30DB
:10057000E94928310860091D0860091D08607047B5
:10058000D0E901121143C268114302691143426963
:10059000114382691143C2691143026A1143426ADD
:1005A0001143826A1143C26A1143026B114302680C
:1005B0009200A2F1C0421160816808290BD1016844
:1005C0008900A1F1C041096841F040020168890039
:1005D000A1F1C0410A60416B0968426B526841EA6F
:1005E0000211426B926841EA0221426B928941EA10
:1005F0000241426B128A41EA0251426B127D41EA8A
:100600000261426B926911430268521C9200A2F18E
:10061000C0421160C16AB1F5804F1BD1816B09687E
:10062000826B526841EA0211826B926841EA0221B0
:10063000826B128A41EA0251826B127D41EA0261A9
:10064000826B9269114302689200A2F1C042C2F823
:10065000041107E06FF0704201688900A1F1C04108
:10066000C1F80421704730B50021002200234468FE
:1006700044F0080485682C43C5682C4305692C4365
:10068000456944EA4524856944EA4531C4692468DA
:10069000C5696D6844EA0524C5692D8944EA0544A5
:1006A000C5692D7B44EA0562046A2468056A6D68A1
:1006B00044EA0524056A2D8944EA0544056A2D7B30
:1006C00044EA05630468102C05D14FF020442166EC
:1006D000A266E36608E0904C21604FF02044C4F825
:1006E00088208D4C0C34236030BD016841F010012E
:1006F000426841EA4221826841EA4231864A203218
:100700001160C1680968C268526841EA0221C26882
:10071000128941EA0241C268127B41EA02617E4AC3
:1007200028321160016909680269526841EA0221B0
:100730000269128941EA02410269127B41EA0261BF
:10074000754A2C321160416909684269526841EA70
:1007500002214269128941EA02414269127B41EA5F
:1007600002614FF02042C2F8B010704700210160D2
:100770000221416000218160C160016141618161AC
:10078000C16101624FF480514162490081620021E0
:10079000C16201630F21426B1160426B5160FF2106
:1007A000426B91600F21426BD160426B1161426BD1
:1007B00051610021426B91610F21826B1160826B4C
:1007C0005160FF21826B91600F21826BD160826B3F
:1007D0001161826B51610021826B91617047102120
:1007E0000160002141608160C160016141618161FE
:1007F000FC21C2691160C2695160C2699160C2691D
:10080000D160026A1160026A5160026A9160026AF4
:10081000D16070470021016041608160FC21C268A5
:100820001160C2685160C2689160C268D16002699B
:10083000116002695160026991600269D160426988
:10084000116042695160426991604269D1607047AC
:1008500051B18200A2F1C042126842F0010382004D
:10086000A2F1C042136009E08200A2F1C042126806
:100870002A4B1A408300A3F1C0431A60704799B114
:10088000102808D14FF02042126E42F004024FF0BF
:1008900020431A661DE0204A126842F004024FF01D
:1008A0002043C3F8802014E0102809D14FF02042E3
:1008B000126E1A4BDB1E1A404FF020431A6608E0F6
:1008C000154A1268154BDB1E1A404FF02043C3F83F
:1008D0008020704748B110492031096841F0040177
:1008E0004FF02042C2F8A01009E00B4920310968FE
:1008F0000A4AD21E11404FF02042C2F8A0107047A1
:10090000B9B110280CD14FF02042126E42F04002D3
:100910004FF020431A661FE0800000A0FEFF0F008A
:10092000724A126842F040024FF02043C3F8802020
:1009300012E0102808D14FF02042126E6C4B1A4082
:100940004FF020431A6607E0684A1268684B1A4065
:100950004FF02043C3F88020704701460020102943
:1009600003D14FF02042506F02E0604A1432106809
:10097000704710B5F2B1102807D14FF020435B6EDD
:100980000B434FF02044636632E0B0F5807F08D11E
:10099000564B1B1D1B680B434FF02044C4F884309A
:1009A00026E0524B24331B680B434FF02044C4F81D
:1009B000A4301DE0102807D14FF020435B6E8B431D
:1009C0004FF02044636613E0B0F5807F08D1474BB9
:1009D0001B1D1B688B434FF02044C4F8843007E094
:1009E000424B24331B688B434FF02044C4F8A4309F
:1009F00010BD10B5024600200023102A03D14FF08D
:100A00002044636E09E0B2F5807F03D1374C241D8A
:100A1000236802E0354C2434236803EA01040CB156
:100A2000012000E0002010BD102807D14FF0204227
:100A3000526E8A434FF020435A6613E0B0F5807F30
:100A400008D12A4A121D12688A434FF02043C3F886
:100A5000842007E0254A243212688A434FF020435D
:100A6000C3F8A420704770B502460020002300247C
:100A70000025102A03D14FF02046736E09E0B2F52D
:100A8000807F03D1194E361D336802E0174E24369D
:100A9000336803EA010403EAD10514B10DB1012062
:100AA00000E0002070BD102808D14FF02042526EA7
:100AB00022EAD1024FF020435A6615E0B0F5807F5C
:100AC00009D10A4A121D126822EAD1024FF02043CE
:100AD000C3F8842008E0054A2432126822EAD102D1
:100AE0004FF02043C3F8A42070470000800000A00E
:100AF000BFFF0F0010B50446CC48844208D1012145
:100B0000042000F093FB0021042000F08FFB46E05E
:100B1000C748844208D10121082000F087FB00214A
:100B2000082000F083FB3AE0C248844208D101214A
:100B3000102000F07BFB0021102000F077FB2EE05E
:100B4000BD48844208D10121202000F06FFB002124
:100B5000202000F06BFB22E0B848844208D101213C
:100B6000402000F063FB0021402000F05FFB16E016
:100B7000B348844208D10121802000F057FB0021B6
:100B8000802000F053FB0AE0AE48844207D10121E7
:100B9000801500F04BFB0021A01500F047FB10BDB5
:100BA00010B50121084600F041FB0021012000F0B2
:100BB0003DFB10BD2DE9F041024600250026002036
:100BC00000230024002791F803C00CF00F0591F8D2
:100BD00003C00CF0100CBCF1000F03D091F802C060
:100BE0004CEA050591F800C0BCF1000F31D0146843
:100BF00000202BE04FF0010C0CFA00F3B1F800C01C
:100C00000CEA03069E4220D183004FF00F0C0CFA31
:100C100003F7BC4305FA03FC4CEA040491F803C053
:100C2000BCF1280F06D14FF0010C0CFA00FCC2F801
:100C300014C00AE091F803C0BCF1480F05D14FF091
:100C4000010C0CFA00FCC2F810C0401C0828D1D3DB
:100C50001460B1F800C0BCF1FF0F34DD546800200F
:100C60002EE000F1080C4FF0010808FA0CF3B1F87F
:100C700000C00CEA03069E4221D183004FF00F0C06
:100C80000CFA03F7BC4305FA03FC4CEA040491F8A0
:100C900003C0BCF1280F05D100F1080C08FA0CF8CC
:100CA000C2F8148091F803C0BCF1480F07D100F1DD
:100CB000080C4FF0010808FA0CF8C2F81080401C2C
:100CC0000828CED35460BDE8F0814FF6FF71018053
:100CD000022181700421C170704702460020936890
:100CE0000B400BB1012000E00020704701468868EE
:100CF00080B2704702460020D3680B400BB1012040
:100D000000E0002070470146C86880B2704701616A
:100D10007047416170470AB1016100E0416170476D
:100D2000C16070474FF480320A4382618161826101
:100D300082698269704702460020434B18684FF66B
:100D40008073184040EA021008433F4B1860704718
:100D50003E49C8617047F0B50A46002300240021CF
:100D6000002500F00046B6F1004F02D1364EF16981
:100D700001E0354E7168C0F3034583B200F44016BC
:100D8000B6F5401F08D121F070612F4E766826F02D
:100D900070662D4F7E6012E000F48016B6F5801F5D
:100DA00006D1032606FA05F4A14341F0706106E07E
:100DB000460D360103FA06F6B14341F0706122B1E7
:100DC000460D360103FA06F6314300F00046B6F14F
:100DD000004F02D11C4EF16101E01B4E7160F0BD6D
:100DE00030B500228B071C0F0F2303FA04F2164BB9
:100DF00008338C1053F824309343134C08348D106F
:100E000044F8253023468C1053F824308C07240FE7
:100E100000FA04F423430C4C08348D1044F82530B8
:100E200030BD0A49DC31086070470000000801400D
:100E3000000C014000100140001401400018014066
:100E4000001C014000200140000001400000204241
:100E500010B50121080700F0F6F900214FF080508D
:100E600000F0F1F910BD2A4908627047284908616D
:100E7000704701460020274A106820F0E000084330
:100E8000106070472249A0310860704710B50246D3
:100E90000020204B186820F00300104318601E4B00
:100EA0001B6843F004031C4C2360012901D130BFAF
:100EB00000E020BF184B1B6823F00403164C23608E
:100EC00010BD1448006840F004001249086008464C
:100ED000006840F0020008600F48006840F004001D
:100EE0000D49086000BF00BF30BF704701460020B9
:100EF000084A52680A400AB1012000E00020704709
:100F00000449096841EA8001024A11607047000003
:100F100000000E420070004010ED00E0DF48006865
:100F200040F00100DD49086008464068DC4908409F
:100F3000DA49486008460068DA490840D74908603D
:100F40000846006820F4802008600846406820F4C5
:100F5000FE0048604FF41F0088607047CF49096861
:100F600021F48031CD4A11601146096821F48021B5
:100F70001160B0F5803F03D0B0F5802F0ED106E0B0
:100F8000C649096841F48031C44A116007E0C34989
:100F9000096841F4A021C14A116000E000BF00BF10
:100FA000704710B501460022002300204A11012A93
:100FB00002D1BA4C236806E0022A02D1B74C236A58
:100FC00001E0B64C636A01F01F02012494401C400A
:100FD0000CB1012000E0002010BD38B500200090C9
:100FE0000024002500BF3120FFF7DBFF05460098F5
:100FF000401C00900098B0F5A06F01D0002DF2D0F9
:101000003120FFF7CEFF08B1012400E00024204684
:1010100038BD01460020A14A106820F0F80040EADF
:10102000C10010607047A049086070470246002068
:101030009A4B586820F47C1042EA01031843974BFE
:101040005860704798490866704701460020934AE7
:10105000506820F003000843506070478F48406894
:1010600000F00C007047014600208C4A506820F0C8
:10107000F00008435060704701460020874A5068DE
:1010800020F4E06008435060704701460020834A26
:10109000506820F4605040EAC1005060704729B1A8
:1010A0007E4A527A02437D4B5A7204E07B4A527A5E
:1010B00082437A4B5A7270477B49D8310860704737
:1010C00001460020754A506820F4404008435060B3
:1010D00070470021714A20321170704A82F8201046
:1010E000012802D004280AD104E001216B4A2032F1
:1010F000117005E00521694A2032117000E000BF3F
:1011000000BF70476949086070476449096A014334
:10111000624A11627047654944390860704730B5CA
:1011200000210022002400235C4D6D6805F00C01B5
:1011300021B1042905D0082923D105E05C4D0560C3
:1011400022E05B4D05601FE0544D6D6805F47012A0
:10115000524D6D6805F48034022505EB92421CB9AE
:10116000544D554305600BE04C4D6D6805F400355A
:101170001DB1504D5543056002E04D4D554305608E
:1011800002E04B4D056000BF00BF444D6D6805F0A7
:10119000F0010909484D6B5C0568DD4045603F4D35
:1011A0006D6805F4E061090A434D6B5C4568DD40FC
:1011B00085603A4D6D6805F46051C90A3E4D6B5C1F
:1011C0004568DD40C560354D6D6805F44041890BCB
:1011D0003A4D6B5CC568B5FBF3F5056130BD29B1CF
:1011E0002E4A526902432D4B5A6104E02B4A526940
:1011F00082432A4B5A61704729B1284A92690243B7
:10120000264B9A6104E0254A92698243234B9A61F6
:10121000704729B1214AD2690243204BDA6104E0C8
:101220001E4AD26982431D4BDA61704729B11B4ABD
:10123000D2680243194BDA6004E0184AD26882434C
:10124000164BDA60704729B1144A12690243134BF6
:101250001A6104E0114A12698243104B1A61704707
:1012600012494039086070470F49C86470470B49FC
:10127000C87170470948406A40F080700749486269
:10128000704701460020054A92680A400AB10120D1
:1012900000E000207047014988727047001002404A
:1012A0000000FFF8FFFFF6FE0000424280044242C9
:1012B00000127A0000093D001400002024000020E4
:1012C00029B1504A128802434E4B1A8004E04D4A1D
:1012D000128882434B4B1A8070474A48001D008891
:1012E00040F010004749091D088070474548001D1F
:1012F00000884FF6EF7108404249091D0880704789
:10130000002140481C300188001F008841EA00404D
:10131000704700B50246FFF7E0FF100C394918315D
:101320000880091D0A80FFF7E1FF00BD00B50246F5
:10133000FFF7D3FFC2F30340324908310880091D8B
:101340000A80FFF7D3FF00BD00B50246FFF7C5FFD7
:10135000100C2C4920310880091D0A80FFF7C6FFB8
:1013600000BD00202749103109880907080B2549CD
:10137000143109880843704700BF2248001D0088C7
:1013800000F020000028F8D070471E48001D00889B
:101390004FF6F77108401B49091D088000BF194826
:1013A000001D008800F008000028F8D070470146B2
:1013B0000020144A121D12880A400AB1012000E0E0
:1013C000002070470F49091D098881430D4A121DED
:1013D00011807047014600200A4A121D12880A40F7
:1013E000D0B2084A12880A4012B108B1012000E0C8
:1013F000002070470349091D09888143014A121DD5
:10140000118070470028004010B50446BE48844251
:1014100008D101218014FFF709FF0021A014FFF774
:1014200005FF16E0B948844208D101210014FFF7F6
:101430000AFF00212014FFF706FF0AE0B4488442A7
:1014400007D10121C013FFF7FEFE0021E013FFF7D3
:10145000FAFE10BD10B50022028802F441520B883A
:101460004C8823438C882343CC8823430C89234313
:101470004C8923438C892343CC8923431A4302801C
:10148000838B4FF2FF74234083830B8A038210BD4A
:101490002DE9F04F85B005460C464FF000090227B4
:1014A0004FF000084FF0010B0026B246A88B4FF218
:1014B00040010840A88302202884B5F81C90A06849
:1014C000022801D100BF38E0A08810B94FF0010B0D
:1014D00001E04FF0020B8D48854200D100E000BFD3
:1014E0006846FFF71CFEDDF800A0E088B0F5007F3D
:1014F0000AD14FEA1A2000EB80004000A168B0FB3F
:10150000F1F0401D86B20BE04FEA4B10BAFBF0F051
:1015100000EB80004000A168B0FBF1F0401D86B2F6
:101520000A20B6FBF0F606F00108A6EB0800C0F3AF
:101530004F074FF6FF7000EA0828022F01DBFF2F4C
:1015400002DD02274FF00008E08840EA0800384337
:101550002884A088A189084361880843218808431A
:1015600040F4006040EA0909A5F81C9005B0BDE808
:10157000F08F0021018041808180C1800181418103
:101580008181C18107210182704700210180418052
:101590008180C1800221816000218181704721B159
:1015A000028842F04002028004E002884FF6BF73D6
:1015B0001A400280704721B1828B42F4806282839C
:1015C00004E0828B4FF6FF331A408283704730B5B8
:1015D000002400230C110125A540ABB21AB1858867
:1015E0001D43858002E085889D43858030BD1AB10A
:1015F00083880B43838002E083888B43838070471A
:10160000818170470146888970474FF6FF62914299
:1016100004D0028842F48072028004E002884FF60F
:10162000FF631A400280704721B1828842F00402B1
:10163000828004E082884FF6FB731A4082807047F4
:1016400002884FF2FF731A40028002880A43028028
:101650007047018841F480510180704721B10288B0
:1016600042F40052028004E002884DF6FF731A40F3
:101670000280704702460020012901D0108B00E053
:10168000908A70470146088A7047B1F5804F04D1AF
:10169000028842F48042028004E002884BF6FF7325
:1016A0001A40028070470246002013890B400BB19C
:1016B000012000E000207047CA4302817047F0B566
:1016C0000246002000240023002501F00F07012618
:1016D000BE40B4B20B1101269E40B3B2968806EA12
:1016E00003051689264016B10DB1012000E0002047
:1016F000F0BD10B5002201F00F040123A3409AB2FF
:10170000D343038110BD0000003001400038004089
:10171000003C004010B50446FE48844208D1012137
:10172000C014FFF783FD0021E014FFF77FFDC4E044
:10173000B4F1804F08D101210846FFF784FD002154
:101740000120FFF780FDB8E0F348844208D1012171
:101750000220FFF778FD00210220FFF774FDACE0C6
:10176000EE48844208D101210420FFF76CFD0021DE
:101770000420FFF768FDA0E0E948844208D1012178
:101780000820FFF760FD00210820FFF75CFD94E0D2
:10179000E448844208D101211020FFF754FD0021C4
:1017A0001020FFF750FD88E0DF48844208D1012176
:1017B0002020FFF748FD00212020FFF744FD7CE0BA
:1017C000DA48844208D101214014FFF72FFD00219F
:1017D0006014FFF72BFD70E0D548844209D1012148
:1017E000C804FFF723FD00214FF40020FFF71EFD82
:1017F00063E0D048844209D101210805FFF716FDB6
:1018000000214FF48010FFF711FD56E0CA488442D2
:1018100009D101214805FFF709FD00214FF400100F
:10182000FFF704FD49E0C548844208D1012140206A
:10183000FFF709FD00214020FFF705FD3DE0C0480E
:10184000844208D101218020FFF7FDFC0021802087
:10185000FFF7F9FC31E0BB48844208D10121801533
:10186000FFF7F1FC0021A015FFF7EDFC25E0B648DD
:10187000844209D101210804FFF7D8FC00214FF46C
:101880008030FFF7D3FC18E0B048844209D1012131
:101890004804FFF7CBFC00214FF40030FFF7C6FCF3
:1018A0000BE0AB48844208D101218804FFF7BEFC5D
:1018B00000214FF48020FFF7B9FC10BD0022028800
:1018C000944B98420ED0994B98420BD0B0F1804F78
:1018D00008D0914B984205D0904B984202D0904B43
:1018E000984204D14FF68F731A404B881A438D4BA0
:1018F000984207D08C4B984204D04FF6FF431A40D1
:10190000CB881A4302808B8883850B880385814BA3
:1019100098420BD0854B984208D08B4B984205D00B
:101920008A4B984202D08A4B984201D10B7A0386A7
:1019300001238382704770B5002400220023058CA8
:101940004FF6FE7635400584028C8388048B4FF673
:101950008F752C40B51E2C400D882C43751E2A40D7
:101960000D892A434D882A436A4DA8420BD06F4DFA
:10197000A84208D0744DA84205D0744DA84202D0A8
:10198000734DA84213D14FF6F7752A404D892A436B
:101990004FF6FB752A408D882A434FF6FF652B4092
:1019A0004FF6FF552B408D892B43CD892B438380E8
:1019B0000483CD888586028470BD70B50024002222
:1019C0000023058C4FF6EF7635400584028C838822
:1019D000048B48F6FF752C404FF6FF452C400D88D0
:1019E0004FF6FF7606EA05252C434FF6DF752A40B1
:1019F0000D8906EA05152A434D8806EA05152A438E
:101A0000444DA84202D0494DA8421DD14FF67F75E2
:101A10002A404D894FF6FF7606EA05152A434FF610
:101A2000BF752A408D8806EA05152A434FF6FF3513
:101A30002B404FF2FF752B408D8906EA85052B431D
:101A4000CD8906EA85052B4383800483CD880587ED
:101A5000028470BD70B5002400220023058C4FF66F
:101A6000FF6635400584028C8388848B4FF68F7522
:101A70002C404FF6FC752C400D882C434FF6FF553B
:101A80002A400D894FF6FF7606EA05252A434D8840
:101A900006EA05252A431F4DA84202D0234DA8423D
:101AA0001DD14FF2FF752A404D894FF6FF7606EAA9
:101AB00005252A434FF6FF352A408D8806EA05257D
:101AC0002A434EF6FF752B404DF6FF752B408D894E
:101AD00006EA05152B43CD8906EA05152B438380BD
:101AE0008483CD888587028470BD70B50022002371
:101AF0000024058C4EF6FF7635400584038C8488DF
:101B0000828B48F6FF752A404FF6FF452A400D8824
:101B100020E00000002C01400004004000080040CC
:101B2000000C004000100040001400400034014050
:101B3000004C01400050014000540140001800409A
:101B4000001C0040002000400040014000440140D3
:101B5000004801404FF6FF7606EA05252A434DF678
:101B6000FF752B400D8906EA05352B434D8806EAA3
:101B700005352B43FA4DA84202D0FA4DA84208D1B0
:101B80004BF6FF752C408D894FF6FF7606EA8515DA
:101B90002C4384808283CD88A0F84050038470BD9C
:101BA000828B4FF2FF331A408283828B4FF6FF7392
:101BB00003EA01231A4382837047F0B50C461546A9
:101BC000002200210026078C4EF6FF7C07EA0C0756
:101BD0000784828B018C4FF6FF7707EA043640F6C4
:101BE000FF473A404FF6FF7707EA05273A434FF69B
:101BF000FF7707EA03373A43D94FB8420ED0D94F9F
:101C0000B8420BD0B0F1804F08D0D74FB84205D0C2
:101C1000D64FB84202D0D64FB84206D14DF6FF7724
:101C2000394046F48057394305E047F6FF573940BD
:101C300044F48057394382830184F0BD828B4FF690
:101C4000F3731A408283828B0A4382837047F0B514
:101C50000C461546002200210026078C4FF6FF6C2B
:101C600007EA0C070784828B018C4FF6FF7707EA9F
:101C700004264FF60C773A404FF6FF7707EA031732
:101C80002F433A43B64FB8420ED0B64FB8420BD0AE
:101C9000B0F1804F08D0B44FB84205D0B34FB8422E
:101CA00002D0B34FB84206D14FF6FF57394046F441
:101CB0008077394305E04FF2FF57394044F480778D
:101CC000394382830184F0BD028B4FF2FF331A4007
:101CD0000283028B4FF6FF7303EA01231A43028348
:101CE0007047F0B50C461546002200210026078CEF
:101CF0004FF6EF7C07EA0C070784028B018C4FF646
:101D0000FF7707EA041640F6FF473A404FF6FF77A1
:101D100007EA03373A434FF6FF7707EA05273A43C6
:101D20008F4FB8420ED08F4FB8420BD0B0F1804FDA
:101D300008D08D4FB84205D08C4FB84202D08C4F9E
:101D4000B84206D14FF6DF77394046F010073943E5
:101D500005E04FF65F77394044F0100739430283BE
:101D60000184F0BD028B4FF6F3731A400283028B9D
:101D70000A4302837047F0B50C4615460022002145
:101D8000068C4FF6FE773E400684028B018C4FF6A0
:101D90000C7632407E1C06EA03162E433243704E08
:101DA000B0420ED06F4EB0420BD0B0F1804F08D091
:101DB0006D4EB04205D06D4EB04202D06C4EB04276
:101DC00006D14FF6FD76314044F00106314305E07F
:101DD0004FF6F576314044F0010631430283018429
:101DE000F0BD70B505460C465D4885420ED05D4895
:101DF00085420BD0B5F1804F08D05B48854205D0B5
:101E00005A48854202D05A48854200D100E000BFBE
:101E1000208850B92389A28861882846FFF7ABFF44
:101E2000E1882846FFF79EFF25E0208804280AD194
:101E30002389A28861882846FFF753FFE188284656
:101E4000FFF742FF17E0208808280AD12389A288DB
:101E500061882846FFF7FBFEE1882846FFF7EEFE83
:101E600009E02389A28861882846FFF7A6FEE18859
:101E70002846FFF795FE70BD2DE9F04105460C465A
:101E800000260127608808B9022600E00026A08805
:101E9000012801D1022700E001272088A0B9238969
:101EA000A28861882846FFF766FFE1882846FFF789
:101EB00059FF23893A4631462846FFF712FFE18849
:101EC0002846FFF701FF13E02389A288618828468E
:101ED000FFF707FFE1882846FFF7F6FE23893A4619
:101EE00031462846FFF747FFE1882846FFF73AFFCB
:101EF000BDE8F0810A884B881A438B881A43CB8847
:101F00001A430B891A434B891A438B891A43A0F849
:101F1000442070474FF6FF71818000210180C1800D
:101F20004180017270470021018041808180C18021
:101F3000018141818181C1817047002101804180FF
:101F4000012181800021C180018170470021018031
:101F500041808180C1800181418181817047000081
:101F6000002C014000340140000400400008004003
:101F7000000C004021B1028842F00102028004E01E
:101F800002884FF6FE731A400280704731B1B0F8F4
:101F9000442042F40042A0F8442005E0B0F8442078
:101FA000C2F30E02A0F8442070471AB183890B4394
:101FB000838102E083898B438381704781827047EC
:101FC00041EA0203A0F8483070471AB183890B43F5
:101FD000838102E083898B438381704701894FF6B7
:101FE000F8721140018170470A46002101894FF6BD
:101FF0008F73194011430181704730B504460D4677
:1020000029462046FFF7F0FF208940F00700208195
:1020100030BD2DE9F04104460D4616461F46602DA1
:1020200006D13B46012231462046FFF75AFE05E025
:102030003B46012231462046FFF79DFE29462046B9
:10204000FFF7D2FF208940F007002081BDE8F08132
:1020500030B50C4600210189C9B24FF6FF7505EA7B
:102060000325154325432943018130BD2DE9F04166
:1020700005460E4617469846002443463A463146E2
:102080002846FFF7E5FF2C894FF6F870044044F02E
:1020900007044FF68F70044044F070042C81BDE8B3
:1020A000F081F0B504460D4616461F463B463246C3
:1020B00029462046FFF7CCFF208940F4804020814C
:1020C000F0BD0185828270470A46002101884FF6E3
:1020D0008F731940114301807047F0B50C461546C7
:1020E0001E460021002200230189028B038C4FF63B
:1020F000F877394021434FF6FC473A4040F2011748
:102100003A434FF6DD773B404FF6FF7707EA061775
:102110002F433B43018102830384F0BD0A46002123
:10212000018B4FF68F7319401143018370470A46A4
:102130000021018B48F6FF7319404FF6FF7303EA45
:1021400002231943018370470A460021818B4FF611
:102150008F7319401143818370470A460021818B98
:1021600048F6FF7319404FF6FF7303EA0223194341
:102170008183704721B1028842F08002028004E02E
:1021800002884FF67F731A400280704721B182881F
:1021900042F00402828004E082884FF6FB731A400A
:1021A0008280704721B1828842F00802828004E078
:1021B00082884FF6F7731A408280704721B1828877
:1021C00042F00102828004E082884FF6FE731A40DA
:1021D000828070470A460021018B4FF6F773194041
:1021E0001143018370470A460021018B4FF2FF73B0
:1021F00019404FF6FF7303EA022319430183704726
:102200000A460021818B4FF6F773194011438183F1
:1022100070470A460021818B4FF2FF7319404FF639
:10222000FF7303EA02231943818370470A460021A2
:10223000018B4FF6FB7319401143018370470A4627
:102240000021018B4FF6FF3319404FF6FF7303EA6D
:1022500002231943018370470A460021818B4FF600
:10226000FB7319401143818370470A460021818B1B
:102270004FF6FF3319404FF6FF7303EA0223194369
:10228000818370470A460021018B4FF67F73194006
:102290001143018370470A460021018BC1F30E01EF
:1022A0004FF6FF7303EA02231943018370470A467E
:1022B0000021818B4FF67F73194011438183704752
:1022C0000A460021818BC1F30E014FF6FF7303EA2A
:1022D00002231943818370470A460021018C4FF67F
:1022E000FD7319401143018470470A460021018C97
:1022F0004FF6F77319401143018470470A460021D5
:10230000018C4FF6DF7319404FF6FF7303EA021397
:102310001943018470470A460021018C4FF67F73F0
:1023200019404FF6FF7303EA021319430184704703
:102330000A460021018C4FF6FF5319404FF6FF73F8
:1023400003EA02231943018470470A460021018CE5
:102350004FF2FF7319404FF6FF7303EA022319434C
:10236000018470470A460021018C4DF6FF73194025
:102370004FF6FF7303EA023319430184704730B507
:10238000002301248C40A3B2048C9C430484048C5D
:1023900002FA01F5ADB22C43048430BD30B5002300
:1023A00004248C40A3B2048C9C430484048C02FA61
:1023B00001F5ADB22C43048430BD70B50346002056
:1023C00000241846183001258D40ACB21D8CA54361
:1023D0001D8409B1082909D100EB6100056825F0C9
:1023E000700505600568154305600EE00D1FC5F317
:1023F0004E052844056825F4E045056005684FF65C
:10240000FF7606EA02263543056070BD21B10288D9
:1024100042F00202028004E002884FF6FD731A4087
:102420000280704721B1028842F00402028004E079
:1024300002884FF6FB731A400280704721B18288F0
:1024400042F08002828004E082884FF67F731A4057
:102450008280704702884FF6F7731A400280028824
:102460000A430280704782884FF68F731A40828039
:1024700082880A438280704702894FF6F8731A40B7
:10248000028102890A430281704702894FF67F73F5
:102490001A40028102890A43028170478184704791
:1024A00081857047818670470187704781877047B3
:1024B000A0F84010704702884FF6FF431A40028090
:1024C00002880A43028070470146888E70470146A1
:1024D000088F70470146888F70470146B1F8400069
:1024E00070470146888C70470146088D7047024648
:1024F0000020138A0B400BB1012000E00020704740
:10250000CA430282704730B50246002000230024EF
:10251000158A05EA0103958905EA010413B10CB196
:10252000012000E0002030BDCA4302827047000055
:1025300010B50446FB48844209D101218803FEF707
:1025400075FE00214FF48040FEF770FE32E0F64841
:10255000844209D101214804FEF775FE00214FF4A1
:102560000030FEF770FE25E0F048844209D10121D9
:102570008804FEF768FE00214FF48020FEF763FE1A
:1025800018E0EB48844209D10121C804FEF75BFE44
:1025900000214FF40020FEF756FE0BE0E548844290
:1025A00008D101210805FEF74EFE00214FF48010EE
:1025B000FEF749FE10BD2DE9F04786B005460E46F0
:1025C0000024A24600BFA1460027B08900B100BF89
:1025D0002F462C8A4CF6FF700440F08804432C826E
:1025E000AC894EF6F3100440B088318908437189F4
:1025F00008430443AC81AC8A4FF6FF400440B089E5
:102600000443AC8201A8FEF78AFDC648874202D186
:10261000DDF810A001E0DDF80CA0A88900F400406E
:1026200040B10AEBCA0000EB0A1031684900B0FB68
:10263000F1F807E00AEBCA0000EB0A1031688900E4
:10264000B0FBF1F86420B8FBF0F00401200964212C
:1026500001FB1089A88900F4004040B1322000EB52
:10266000C900B0FBF1F000F00700044308E032209D
:1026700000EB09106421B0FBF1F000F00F000443FF
:102680002C8106B0BDE8F0874FF41651016000219F
:102690008180C18001810C214181002181817047AD
:1026A00010B502460020108A4FF2FF0318400B8835
:1026B0004C8823438C882343CC88234318431082BF
:1026C00010BD0021018041808180C180704721B10F
:1026D000828942F40052828104E082894DF6FF73C0
:1026E0001A4082817047F0B5034600240026002579
:1026F000002040F66A17B94200D100BF1846C1F366
:10270000421401F01F06012707FA06F5012C01D13A
:102710000C3004E0022C01D1103000E014301AB16A
:1027200007682F43076002E00768AF430760F0BD0A
:102730001AB1838A0B43838202E0838A8B438382AC
:102740007047028A4FF6F0731A400282028A0A43E7
:102750000282704782894FF2FF731A408281828918
:102760000A438281704721B1828942F0020282814C
:1027700004E082894FF6FD731A4082817047028A15
:102780004FF6DF731A400282028A0A4302827047C0
:1027900021B1028A42F48042028204E0028A4BF6AE
:1027A000FF731A4002827047C1F3080282807047AB
:1027B00001468888C0F308007047818941F0010113
:1027C00081817047028BD2B20283028B42EA0122DE
:1027D00002837047028B02F47F420283028B0A431A
:1027E0000283704721B1828A42F02002828204E093
:1027F000828A4FF6DF731A408282704721B1828A43
:1028000042F01002828204E0828A4FF6EF731A408F
:102810008282704721B1828A42F00802828204E0FB
:10282000828A4FF6F7731A408282704721B18289FB
:1028300042F40042828103E08289C2F30E02828167
:10284000704721B1828A42F40062828204E0828A67
:102850004FF2FF731A4082827047828A4FF6FB73F1
:102860001A408282828A0A438282704721B1828A18
:1028700042F00202828204E0828A4FF6FD731A401F
:102880008282704702460020B1F5007F00D100BF70
:1028900013880B400BB1012000E00020704701F4C9
:1028A0000072B2F5007F00D100BFCA4302807047BA
:1028B00070B50246002400230025002040F66A1669
:1028C000B14200D100BFC1F3421501F01F03012640
:1028D00006FA03F3012D02D19689334006E0022D5A
:1028E00002D1168A334001E0968A33400C12012649
:1028F00006FA04F41688344013B10CB1012000E04C
:10290000002070BD10B50022002340F66A14A142D9
:1029100000D100BF0A1201249440A3B2DC4304801A
:1029200010BD000000380140004400400048004055
:10293000004C00400050004001B502E00098401EED
:10294000009000980028F9D108BD10B50121C048B9
:1029500003F064FD012825D12020BE490860012034
:10296000091F08600220086006F04CFD1020BA49DB
:102970000870002048700A460221B84805F0A8FBFC
:10298000B7480168B7A007F0CDF82020B149091F6A
:1029900008600120091D08600220091F0860B7A017
:1029A00007F0C0F810BD70B5002504F07AF900F00A
:1029B000C8FB02F0AFF82020A6490860012008609B
:1029C0000220091F086000F014FD00F068FD00F00F
:1029D000BCFD03F0CBFB05F082F803F06FFD03F0C4
:1029E000FFFCB04804F0E3F800214FF4784004F015
:1029F000D9F8AD480388AD4802880021084604F0A4
:102A0000BDF804F005F80024A9A1204604F078F8E8
:102A1000AA4804F0CCF804F0F9FBA94804F04EFCF5
:102A2000A8A007F07FF820208A49091F086001202C
:102A3000091D08600220091F086070BD1FB5002431
:102A4000FFF7B1FFFCE0AF480078012834D1FEF772
:102A500057FC05469A4904F055FD0020A949087025
:102A6000A9480078012806D1A849A94803F026F909
:102A70000020A5490870A748007801281CD1A64865
:102A80000078012818D17449087007204870002484
:102A900008E004F11D009E49095CA01C6E4A115417
:102AA000601CC4B2072CF4DB6B4A09219B4805F07B
:102AB0000FFB0020984908709948007801283BD105
:102AC00000F0FBFD974B00220721104605F082FA2B
:102AD0004FF4FA7003F03DFD00F0EFFD924B092238
:102AE0000721002005F076FA4FF4FA7003F031FD6B
:102AF00000F0E3FD002100910A4601910B21002026
:102B000005F09CFB4FF4FA7003F023FD00F0D5FDB7
:102B10008048007801280BD1844B0D22172100201A
:102B200005F058FA4FF4FA7003F013FD00F0C5FDFC
:102B300002207B4908707BE07948007802282AD17E
:102B40007B49724802F095FC401C40B92020414965
:102B500008600120091F08600220086009E02020A9
:102B60003C49091F08600120091D08600220091F57
:102B7000086068480078012809D1022036490870A9
:102B8000002048700A460221644805F0A1FA03209B
:102B9000634908704CE062480078032813D15D480F
:102BA000007848B908202C490870002048700A466F
:102BB00002215A4805F08CFA042059490870012076
:102BC0005049087034E056480078042830D1514804
:102BD0000078012829D157480078012828D14FF4DE
:102BE000FA7003F0B6FC00F068FD02201A49087084
:102BF0000020487000240BE04F48007800EB4000B4
:102C0000164901EB4000005D02A90855601CC4B2E2
:102C1000062CF1DB104A022102A805F059FA002027
:102C2000444908703E49087002E000203C490870A1
:102C3000FFF78BFE00F041FD01F070FC01F0FDFE9E
:102C400001E710B50121024803F0E8FB10BD0000C8
:102C500000080140140C0140950300203A020020B6
:102C60002C00002064697374616E63655F74696D24
:102C7000653D2564206D730A000000000D20467A32
:102C800075447128636F6E66696729232053433149
:102C9000363637B7A2CBCDCAFDBEDDB3C9B9A6A3C0
:102CA000A10A00000C0100201E0100201C010020D0
:102CB0002020202020205354410000000401002047
:102CC000C00000200D20467A75447128636F6E663F
:102CD0006967292320C7EBCAE4C8EBCFB5CDB3CAD7
:102CE000B1BCE4B8F1CABD203A2074696D652058C2
:102CF0005858582F58582F58582058583A58583A1A
:102D000058580A002C0100202D010020410000200D
:102D100010020020280000203D0000209C00002020
:102D20003F000020B1000020A8000020B2000020D9
:102D3000900000203E0000208C00002001B502E041
:102D40000098401E009000980028F9D108BD7047F7
:102D500000BFFEE700BFFEE700BFFEE700BFFEE7E3
:102D6000704770477047704770B540F22551594819
:102D7000FFF79EFDB0B15748FFF71AFDC5B25648A0
:102D800000F0E4FA044664B1A18820684554A088A4
:102D9000401C80B2A080FF2804DD4F4800F0F0FA0C
:102DA00000E070BD40F224414A48FFF781FD012850
:102DB00006D1494800F0E4FA4648FFF7F9FCC5B2ED
:102DC00000BFEEE710B503F093FA10BD70B540F206
:102DD00025514248FFF76CFDD0B14048FFF7E8FCB1
:102DE000C5B229463D48FFF7DFFC3D4800F0AEFA8A
:102DF000044664B1A18820684554A088401C80B274
:102E0000A080FF2804DD364800F0BAFA00E070BD6B
:102E100040F224413148FFF74BFD012806D13048EC
:102E200000F0AEFA2D48FFF7C3FCC5B200BFEEE7D5
:102E300070B540F225512B48FFF73AFDB0B1294853
:102E4000FFF7B6FCC5B2284800F080FA044664B12A
:102E5000A18820684554A088401C80B2A080FF282B
:102E600004DD214800F08CFA00E070BD40F22441FE
:102E70001C48FFF71DFD012806D11B4800F080FA11
:102E80001848FFF795FCC5B200BFEEE710B501206A
:102E9000FEF7A0FA60B10120FEF7ACFA0120134959
:102EA000086013480068401C11490860FEF764FA86
:102EB00010BD10B501210F48FFF725FB40B10E48AA
:102EC0000068401C0C49086001210A48FFF72CFBF0
:102ED00010BD0000003801405405002000480040AB
:102EE00088050020004C0040200500202C01002017
:102EF000A4000020002C01402C00002008B54FF455
:102F0000A060FDF721FA25208DF8000001208DF842
:102F100001008DF802008DF803006846FDF719FAEC
:102F200008BD08B54FF4A060FDF70EFA34208DF807
:102F3000000001208DF801008DF802008DF80300DB
:102F40006846FDF706FA08BD08B54FF4A060FDF726
:102F5000FBF927208DF8000001208DF801008DF885
:102F600002008DF803006846FDF7F3F908BD00B5CF
:102F700085B001211020FEF73FF90121C804FEF7BA
:102F800048F94FF48060ADF8100018208DF8130058
:102F900003208DF8120004A9B048FDF70BFE4FF492
:102FA0000060ADF8100004208DF8130004A9AB48B0
:102FB000FDF700FE4FF4E13000900020ADF8040072
:102FC000ADF80600ADF80800ADF80C000C20ADF827
:102FD0000A006946A248FFF7EEFAFFF7A2FF0122B6
:102FE00040F225519E48FFF77EFB012240F224412A
:102FF0009B48FFF778FB01219948FFF768FB05B074
:1030000000BD00B585B001210420FEF7F5F80121CF
:103010008803FEF7F1F84FF40070ADF810001820A7
:103020008DF8130003208DF8120004A98D48FDF7D8
:10303000C1FD4FF48060ADF8100004208DF813003E
:1030400004A98848FDF7B6FD4FF4E1300090002058
:10305000ADF80400ADF80600ADF80800ADF80C00BE
:103060000C20ADF80A0069467F48FFF7A4FAFFF785
:1030700045FF012240F225517B48FFF734FB012236
:1030800040F224417848FFF72EFB01217648FFF7F4
:103090001EFB76A006F046FD05B000BD00B585B06C
:1030A00001210820FEF7A8F801218804FEF7B1F8F5
:1030B0004FF48060ADF8100018208DF81300032045
:1030C0008DF8120004A97248FDF774FD4FF40060FA
:1030D000ADF8100004208DF8130004A96C48FDF72A
:1030E00069FD4FF4E13000900020ADF80400ADF828
:1030F0000600ADF80800ADF80C000C20ADF80A0091
:1031000069466448FFF757FAFFF71EFF012240F2B5
:1031100025516048FFF7E7FA012240F224415D485B
:10312000FFF7E1FA01215B48FFF7D1FA5AA006F058
:10313000F9FC64A006F0F6FC6AA006F0F3FC05B00A
:1031400000BD10B5FFF7AAFFFFF75BFFFFF70FFF0A
:1031500010BD70B504460D4629462046FFF724FBF6
:1031600000BF80212046FFF78DFB0028F9D070BDFD
:1031700010B5044621463C48FFF716FB00BF8021EE
:103180003948FFF77FFB0028F9D010BD2DE9F04149
:1031900007460D461646002405E0295D3846FFF730
:1031A000D8FF601CC4B2B442F7DB00BF40213846F0
:1031B000FFF768FB0028F9D0BDE8F08170B506463E
:1031C0000C46002500BF615D3046FFF7C2FF6D1C55
:1031D000605D0028F7D100BF40213046FFF752FB69
:1031E0000028F9D070BD2DE9F04105460C46260AAD
:1031F000E7B231462846FFF7D7FA00BF80212846BC
:10320000FFF740FB0028F9D039462846FFF7CCFAF3
:1032100000BF80212846FFF735FB0028F9D0BDE824
:10322000F08170B504460D46E1B21A48FFF7BCFACA
:1032300000BF80211748FFF725FB0028F9D0204662
:1032400070BD10B5044600BF20211248FFF71AFBDD
:103250000028F9D00F48FFF7ABFA10BD001001406D
:10326000004C004000080140003801400D202020A3
:103270002020202020202020202020202048504CCA
:10328000435F55534152545F436F6E6669670A004E
:10329000000C0140004800400D0A0D0A0D0A0D0AFD
:1032A0000D0A0D20467A75447128636F6E66696752
:1032B00029232053797374656D5F436F6E66696768
:1032C0000A0000000D202020202020202020202087
:1032D00020202020204C43445F436F6E6669670ABC
:1032E000000000000D202020202020202020202071
:1032F000202020202044454255475F5553415254D9
:103300005F436F6E6669670A00000000016000227B
:103310004260826070470146D1E9002050408A68CF
:10332000904201D1012070470020FCE70146D1E91D
:103330000120904201D1012070470020FCE70246A5
:1033400010684000401E4B1C1840704710B50446E2
:103350002046FFF7E0FF08B1002010BD2169A068FA
:10336000884204D12046A168FFF7E9FF2061216867
:10337000491E2069084004F1140151F82000ECE7CF
:1033800001698160704710B504462046FFF7CEFF03
:1033900008B1002010BDE1686068884204D1204671
:1033A0006168FFF7CCFFE0602168491EE0680840D3
:1033B00004F1140151F82000ECE700230268521ECA
:1033C000C168114000F1140252F821108B80C168CD
:1033D00041607047002000BF08E0F74951F8301005
:1033E00019B10021F44A42F83010401C0828F4D3E7
:1033F000704738B500244021EF4806F046F8082110
:10340000EE48FFF783FF00BF25E0ED4800EB042006
:10341000E94941F83400084600EBC401E74814309C
:1034200040F8241000BFE748007858B1E348143052
:1034300050F824000368E04850F83420DD21E248C9
:1034400006F070FB00BFDC4951F834004FF4807186
:1034500006F01BF8641C082CD7D300BFD9480078AD
:1034600048B1D64880680090D4484368E221026899
:10347000D6A006F057FB00BF00BFD248007848B185
:10348000CE4800690090CD48C368E2210268DD485B
:1034900006F048FB00BFDCA006F044FB38BD38B5A1
:1034A00000244021E14805F0F0FF0821E048FFF743
:1034B0002DFF00BF25E0DF4800EB0420DB4941F889
:1034C0003400084600EBC401D948143040F82410F9
:1034D00000BFBC48007858B1D548143050F82400DB
:1034E0000368D24850F83420F721D34806F01AFB7D
:1034F00000BFCE4951F834004FF4807105F0C5FF8C
:10350000641C082CD7D300BFAE48007848B1C84827
:1035100080680090C6484368FC210268ABA006F0B2
:1035200001FB00BF00BFA748007848B1C048006950
:103530000090BF48C368FC210268B24806F0F2FA66
:1035400000BFBEA006F0EEFA38BD38B50024402119
:10355000C44805F09AFF0821C348FFF7D7FE00BF13
:1035600026E0C24800EB0420BE4941F8340008467A
:1035700000EBC401BC48143040F8241000BF91484F
:10358000007860B1B848143050F824000368B5489A
:1035900050F8342040F21111B54806F0C3FA00BFCC
:1035A000B04951F834004FF4807105F06EFF641C8F
:1035B000082CD6D300BF8348007850B1AA48806851
:1035C0000090A94843684FF48B7102687FA006F011
:1035D000A9FA00BF00BF7B48007850B1A24800693B
:1035E0000090A148C3684FF48B710268854806F0CB
:1035F00099FA00BF9FA006F095FA38BDF8B50646C7
:103600000F46002532E06D48FFF7A0FE044654B196
:10361000705D21684855A088401CA080A1889EA0AC
:1036200006F080FA00E0F8BD00BF6648007850B1AF
:10363000624880680090614843684FF4987102685E
:1036400062A006F06FFA00BF00BF5E48007850B17C
:103650005A48006900905948C3684FF4987102684D
:10366000684806F05FFA00BF681CC5B2BD42CADBFD
:103670005248FFF785FE00BF5248007850B14F48CE
:10368000806800904D4843684FF49B7102684FA0DA
:1036900006F048FA00BF00BF4A48007850B14748DA
:1036A000006900904548C3684FF49B710268554813
:1036B00006F038FA00BF00BFB5E770B53F48FFF726
:1036C00062FE0446002C74D00020A2882168885431
:1036D00000BF26683B480078C8B174A006F022FA03
:1036E00000250EE0715D78A006F01CFA681C0A2126
:1036F00090FBF1F201FB120010B966A006F012FA7D
:103700006D1CA088A842EDDC62A006F00BFA00BF99
:10371000A088032828DA6EA006F004FA71A006F04B
:1037200001FA00BF266876A006F0FCF900250EE03D
:10373000715D65A006F0F6F9681C0A2190FBF1F2B4
:1037400001FB120010B973A006F0ECF96D1CA08803
:10375000A842EDDC4FA006F0E5F900BF1748FFF7DF
:103760002CFE4FF0FF3070BD206804F08AFD401C35
:1037700000281FD120680078FE2813D120684078E7
:10378000FE280FD120688078FE280BD12068C078F1
:10379000FE2807D120680079682803D101206249FA
:1037A0000870DCE000BF266855A006F0BBF90025D4
:1037B000CDE0E0E0D9E000006004002054050020E6
:1037C000BC0500202900002064DD00083C3C2D5190
:1037D000554555452D44454255472D3E3E205B25D8
:1037E000645D73697A653D307825782C2072656157
:1037F000643D25642C2077726974653D25640A0A4E
:103800000000000000DC00080D20202020202020E7
:1038100020202020202020202048504C435F51753C
:103820006575655F436F6E6669670A00A0040020D6
:1038300088050020BC0D0020ACDD00080D202020F4
:1038400020202020202020202020202020446562CD
:1038500075675F51756575655F436F6E6669670A69
:1038600000000000E004002020050020BC1500201E
:1038700000DE00080D2020202020202020202020F5
:10388000202020202050695F51756575655F436F6A
:103890006E6669670A0000000D0A646174615F70FA
:1038A0002D3E6C656E203D25640000000A3C3C2DD9
:1038B00051554555452D44454255472D415252419C
:1038C000592D3E3E0A00000025303278202020008D
:1038D0000D20467A75447128636F6E6669672923E7
:1038E00020000000736331363637BDD3CAD5B5BD6D
:1038F000B7C7B7A8D6A1B6AAC6FA200A000000002A
:1039000020202020202020202020202020202020B7
:10391000000000000A20202020202020202020203D
:1039200020202020200000003F000020715DAFF229
:10393000680006F0F7F8681C0A2190FBF1F201FB21
:10394000120018B9AFF2340006F0ECF86D1CA08834
:10395000A842EBDCAFF2C40006F0E4F800BFF74881
:10396000FFF72BFD6FF00100FDE6206804F0B7FCC7
:10397000F248FFF722FD00BFF5E62DE9F04190B0D7
:1039800006460025002711E0F05D0BA9C8550BA8DD
:10399000C05D202807D00BA8C05D0D2803D00BA860
:1039A000C05D0A2800D103E0781CC7B2142FEBDBFE
:1039B00000BF00200BA9C855E1A10BA805F070FDC0
:1039C000002857D1707930384FF47A714843B17973
:1039D000303901EBC10202EB011100EB8101F079FA
:1039E000303800EB800001EB4000317A0844303879
:1039F000D5494861F17AB07A303800EB800001EBAC
:103A000040003038D0490861B17B707B303800EB22
:103A1000800001EB40003038CB49C860717C307CBD
:103A2000303800EB800001EB40003038C649886038
:103A3000317DF07C303800EB800001EB4000303805
:103A4000C1494860F17DB07D303800EB800001EB6A
:103A500040003038BC490860084603F01BFC4AF2BD
:103A6000A5510420FCF707FD0120B8490870B849AA
:103A70000870BBE2B7A10BA805F012FD80B9B748EA
:103A8000007830B90120B5490870B5A006F04AF8B1
:103A9000EFE70020B1490870B9A006F043F8E8E765
:103AA000BFA10BA805F0FCFC88B9BF48007801282D
:103AB00006D10020BC490870BCA006F033F8D8E756
:103AC0000120B9490870C1A006F02CF8D1E7C7A1C0
:103AD0000BA805F0E5FC0028CBD1421E14210BA851
:103AE00005F0CCFC781CC5B2002712E07819305CD8
:103AF0000BA9C8550BA8C05D202807D00BA8C05D36
:103B00000D2803D00BA8C05D0A2800D103E0781C63
:103B1000C7B2142FEADB00BF00200BA9C855B5A11E
:103B20000BA805F0BDFC68BBB4A005F0FBFFBB48CB
:103B300005F0F8FFBA4805F0F5FFBA4805F0F2FFC6
:103B4000B94805F0EFFFB94805F0ECFFB84805F0BB
:103B5000E9FFB84805F0E6FFB74805F0E3FFB748CE
:103B600005F0E0FFB64805F0DDFFB64805F0DAFFE6
:103B7000B54805F0D7FFB54805F0D4FFB44805F0C7
:103B8000D1FF76E76EA10BA805F08AFC18B90120D9
:103B90006E4908706DE7AFA10BA805F081FC40B934
:103BA000002100910A4601910B21002004F046FB00
:103BB0005FE7ABA10BA805F073FC00287AD1E819E8
:103BC000401CC5B2002431E02819305C602805DDB6
:103BD0002819305C57382919705404E02819305CD2
:103BE0003038291970542819401C305C602808DDD1
:103BF0002819401C305C5738C1B22819401C315478
:103C000007E02819401C305C3038C1B22819401C2C
:103C100031542819401C315C2819305C01EB00102C
:103C20000BA90855A81CC5B2601CC4B2062CCBDB7E
:103C3000002400BF08E08C48005D0BA9095D8842A4
:103C400000D003E0601CC4B2062CF4DB00BF062CDD
:103C500007D10020009002460221019004F0EEFA04
:103C600007E70027002513E000270CE005EB4500DF
:103C70007E4901EB4000C05D0BA9C95D884200D0C0
:103C800003E0781CC7B2062FF0DB00BF681CC5B28A
:103C9000062F03D0764800788542E5DB062F05D154
:103CA0000BA9522004F0B4FAE3E603E071A005F09A
:103CB00039FFDEE67AA10BA805F0F2FB00283BD124
:103CC000E819401CC5B2002431E02819305C602896
:103CD00005DD2819305C57382919705404E028197B
:103CE000305C3038291970542819401C305C602829
:103CF00008DD2819401C305C5738C1B22819401C17
:103D0000315407E02819401C305C3038C1B2281902
:103D1000401C31542819401C315C2819305C01EBDF
:103D200000100BA90855A81CC5B2601CC4B2062C13
:103D3000CBDB002400BFBEE0F3E000005405002010
:103D400074696D6500000000DC0000203C0000206C
:103D50003D000020646562756700000029000020B6
:103D60000D20467A75447128636F6E666967292352
:103D7000206465627567C4A3CABDBFAAC6F40A0001
:103D80000D20467A75447128636F6E666967292332
:103D9000206465627567C4A3CABDB9D8B1D50A00ED
:103DA0005354412F43434F00280000200D20467AF2
:103DB00075447128636F6E666967292320535441E7
:103DC000C4A3CABDBFAAC6F40A0000000D20467AEB
:103DD00075447128636F6E66696729232043434FDA
:103DE000C4A3CABDBFAAC6F40A00000073686F77F7
:103DF00000000000636F6D6D616E64000D20467AF7
:103E000075447128636F6E666967292320CBF9D3E7
:103E1000D0C3FCC1EECCE1CABE0A000050E10008EC
:103E200028DF000850DE0008BCDE0008F0E10008D2
:103E300044E2000844DC0008ACDC00087CDF000839
:103E40006CE00008D4E000089CE1000820E00008D5
:103E5000D4DF00086D61696C61646472657373001E
:103E600076657273696F6E00800000203A02002050
:103E70008C0000200D202020202020202020202029
:103E80002020202020CEDEC6A5C5E4B5C4CDA8D113
:103E9000B6B5D8D6B72CC7EBBCECB2E90A00000027
:103EA0004D414300F848005D0BA9095D884200D0F0
:103EB00003E0601CC4B2062CF4DB00BF062C07D163
:103EC0000020009002460321019004F0B7F922E39C
:103ED0000027002513E000270CE005EB4500EB4927
:103EE00001EB4000C05D0BA9C95D884200D003E032
:103EF000781CC7B2062FF0DB00BF681CC5B2062FC6
:103F000003D0E34800788542E5DB062F04D10BA9F6
:103F1000532004F07DF9FEE2AFF2A80005F002FEA6
:103F2000F9E2DCA10BA805F0BBFA38B9002000903B
:103F300002460621019004F081F9ECE2D8A10BA819
:103F400005F0AEFA00287CD1E819401CC5B2002467
:103F500031E02819305C602805DD2819305C5738BD
:103F60002919705404E02819305C3038291970542C
:103F70002819401C305C602808DD2819401C305C82
:103F80005738C1B22819401C315407E02819401C89
:103F9000305C3038C1B22819401C31542819401CFB
:103FA000315C2819305C01EB00100BA90855A81CE6
:103FB000C5B2601CC4B2062CCBDB002400BF08E0F5
:103FC000B148005D0BA9095D884200D003E0601C88
:103FD000C4B2062CF4DB00BF062C08D100210091EE
:103FE0000A4601910D21002004F028F993E20027F0
:103FF000002513E000270CE005EB4500A34901EB89
:104000004000C05D0BA9C95D884200D003E0781C68
:10401000C7B2062FF0DB00BF681CC5B2062F03D065
:104020009B4800788542E5DB062F05D10BA95D2072
:1040300004F0EEF86FE204E0AFF2C81005F072FD94
:1040400069E29AA10BA805F02BFA002876D1E819AD
:10405000401CC5B200240DE02819401C315C3039E9
:104060002819305C01EB00100BA90855A81CC5B23B
:10407000601CC4B2062CEFDB0024A04615E000242F
:104080000CE008EB48008B4901EB4000005D0BA9F8
:10409000095D884200D003E0601CC4B2062CF0DB4E
:1040A00000BF08F1010000F0FF0883480078804558
:1040B00001DA062CE3D1062C08D142467D497F481F
:1040C00001F02AFF7D4801F0D3FB24E20027012400
:1040D00027E0002518E0002711E0F81D062101FB6C
:1040E000050004EB840101EB4411754A1144085C9E
:1040F0000BA9C95D884200D003E0781CC7B2062F27
:10410000EBDB00BF681CC5B2062F08D004EB8400AF
:1041100000EB44106A4908448079A842DBDC601C4B
:10412000C4B2062F03D05A4800788442D1DD062F4E
:1041300027D1601EC4B24FF000080FE025E004EB69
:10414000840000EB44105E49084410F808000BA9F5
:1041500001F8080008F1010000F0FF08B8F1060FAF
:10416000EDDB04208DF8180001208DF81900681E81
:10417000C0B28DF81A0006AA03210BA803F0A8FF0D
:10418000C9E150A005F0CEFCC5E158A10BA805F08F
:1041900087F9002876D1E819401CC5B24FF0FF32EC
:1041A0002A21464805F06AF900243FE02819305CCE
:1041B000602805DD2819305C57382919705404E04F
:1041C0002819305C3038291970542819401C305C8B
:1041D000602808DD2819401C305C5738C1B2281906
:1041E000401C315407E02819401C305C3038C1B203
:1041F0002819401C3154062C0BDB2819401C305C5C
:104200002919715C01EB810100EB41000BA90855F4
:1042100008E02819401C315C2819305C01EB0010C3
:104220000BA90855A81CC5B2601CC4B2092CBDDB83
:10423000002400BF08E01448005D0BA9095D884216
:1042400000D003E0601CC4B2062CF4DB00BF062CD7
:1042500008D19DF834209DF833109DF8320001F00C
:10426000BFFE58E1002700254BE0002744E005EBA6
:104270004500064901EB4000C05D0BA9C95D8842BD
:1042800038D03BE06CE00000800000203A020020C3
:104290008C00002070617373776F726400000000FF
:1042A000706172616D6574657200000064617461B3
:1042B00000000000410000208E00002010020020BD
:1042C0005E0200200D202020202020202020202001
:1042D0002020202020CEDEC6A5C5E4B5C4B5E7B1B8
:1042E000ED2CC7EBBCECB2E90A000000666C617310
:1042F00068000000781CC7B2062FB8DB00BF681C3E
:10430000C5B2062F03D0FB4800788542ADDB062FEF
:1043100021D14FF0000803E008F1010000F0FF0890
:10432000B8F1060FF8DB06208DF8180003208DF891
:1043300019009DF832008DF81A009DF833008DF8B1
:104340001B009DF834008DF81C0006AA05210BA85F
:1043500003F0BEFEDFE0AFF2E44005F0E3FBDAE09D
:10436000E5A10BA805F09CF818BBE2480178E3A092
:1043700005F0D8FB012517E02946E9A005F0D2FB9E
:1043800000270AE005EB4500EE4A02EB4000C15D64
:10439000EDA005F0C7FB781CC7B2062FF2DBDFA04B
:1043A00005F0C0FB681CC5B2D24800788542E3DD49
:1043B000B1E0AFF210610BA805F072F880B9E448E3
:1043C0004079E3490979E24AD278CDE900210290A7
:1043D000DF48837842780178DEA005F0A3FB9AE0FD
:1043E000AFF240110BA805F05BF800287ED1AFF6C4
:1043F000203005F097FBE6480178E6A005F092FB37
:1044000000271AE0791CE8A005F08CFB00250AE0E3
:1044100007EB4700ED4A02EB4000415DECA005F0E0
:1044200081FB681CC5B2062DF2DBEB4850F8271063
:10443000EAA005F077FB781CC7B2D5480078874220
:10444000E0DB012463E004EB840000EB4410E74967
:104450000844807904EB840101EB4411E34A1144E0
:10446000497904EB840202EB4412E04B1A441279BE
:1044700004EB840303EB4413DFF870C36344DB787D
:10448000CDE90132CDE9031004EB840000EB4410C8
:10449000614608448078009004EB840000EB4410EF
:1044A0000844437804EB840000EB44100A5C214686
:1044B000CF4805F037FB00251EE0691CCDA005F0B4
:1044C00031FB00270FE0F81D062202FB050004EB7C
:1044D000840202EB4412C54B1A44115C9AA005F009
:1044E00021FB781CC7B2062FEDDB00E013E08BA0A8
:1044F00005F018FB681CC5B204EB840000EB441007
:10450000BA4908448079A842D7DC601CC4B2794813
:104510000078844297DD10B0BDE8F08170B5BE48E8
:10452000FEF731FF0446002C3AD00020A288216813
:10453000885400BFB948007828B14FF4B971B8A0C9
:10454000226805F0EFFA00BF00BF2668B348007884
:10455000D8B1AFF6A84005F0E5FA00250FE0715D8F
:10456000AFF69C4005F0DEFA681C0A2190FBF1F2E0
:1045700001FB120010B969A005F0D4FA6D1CA088E7
:10458000A842ECDC65A005F0CDFA00BF2068FFF77B
:10459000F4F9A148FEF711FFAFF6CC4005F0C2FADE
:1045A00070BD2DE9F047B4B08046002498F80100B2
:1045B00000F00F01001101EB001A98F80090B9F11A
:1045C000010F09D0B9F1020F1CD0B9F1030F50D07F
:1045D000B9F1040F72D18DE101208DF8080000209F
:1045E0008DF80900002405E09748015D02AAA01C8F
:1045F0001154641C062CF7D3082202A99348FEF735
:10460000C5FD17E202208DF808003A48007800EB5B
:104610004000012101EB4000C0B28DF8090035488F
:1046200000788DF80A00012613E000240EE006EB66
:104630004600444901EB4000015D701E00EB400064
:104640004000C01C204402AA1154641C062CEED366
:10465000761C284800788642E7D92648007800EB87
:104660004000032101EB400202A97848FEF78EFDCD
:10467000E0E103208DF8080000208DF809000024F7
:1046800008E0A01C18F800006F49095D884200D0BE
:1046900002E0641C062CF4D300BF062C28D13C4851
:1046A000007800EB40004000401CC0B28DF80900CB
:1046B000374800788DF80A00012614E0B3E10024A1
:1046C0000EE006EB4600414901EB4000015D701E23
:1046D00000EB40004000C01C204402AA1154641C9E
:1046E000062CEED3761C2A4800788642E7D9F9E0FA
:1046F000AEE000008C000020535441000D20467AAB
:1047000075447128636F6E666967292320D7DC536F
:104710005441CAFDC1BFD3D02564CCA80A00000013
:104720000D2020202020202020202020202020209C
:1047300020B5DA2564CCA8535441B5D8D6B7203A71
:10474000200000003A0200202025303278000000CE
:10475000860000200D20467A75447128636F6E66CE
:10476000696729232043434FB5D8D6B72025303277
:104770007820253032782025303278202530327864
:1047800020253032782025303278200A00000000C1
:104790008E000020B1BEB5D8D7DCB5E7B1EDCAFDBB
:1047A000202564200A0000000D2020202020202049
:1047B000202020202020202020B5DA2564CCA8B598
:1047C000E7B1EDB5D8D6B7203A202000410000204F
:1047D0002530327820000000680000202020B2A898
:1047E000CCD8C2CA2564200A000000005E02002066
:1047F00014DD00080D202020202020202020202053
:104800002020202020B5DA2564CCA8B5E7B1EDB58D
:10481000D8D6B7203A2000008805002029000020C3
:104820003C3C2D51554555452D44454255472D3E5F
:104830003E205B25645DBDD3CAD5B5BDB5C4CAFDF8
:10484000BEDDA3BA25730A0080000020004C0040A2
:10485000012542E000260DE0B01C18F8000005EB31
:10486000850101EB4511944A1144895D884200D0CD
:1048700002E0761C062EEFD300BF062E2CD105EBEE
:10488000850000EB45108C490844807900EB40001E
:104890004000401CC0B28DF8090005EB850000EB1C
:1048A0004510084480798DF80A0000240BE005EBE0
:1048B000850000EB451080490144E01D095CE01CC7
:1048C00002AA1154641C9DF80900401EA042EED8B3
:1048D0007A480078451C04E06D1C784800788542D1
:1048E000B8D900BF9DF80900821C02A97448FEF7E0
:1048F0004DFC9FE0002505E0A81C18F800000DF80D
:1049000005006D1C062DF7D30025002711E00025BA
:104910000BE007EB47006B4901EB4000405D1DF8E1
:104920000510884200D002E06D1C062DF1D300BFB7
:104930007F1C65480078874201D2062DE7D1062DFD
:104940001AD13A465F49614801F0E6FA04208DF831
:1049500008002A208DF80900002405E05B48015D6D
:10496000A01C02AA1154641C2A2CF7D32C2202A9E1
:104970005348FEF70BFC55E00024012524E00026F7
:1049800016E0002410E0E01D062101FB060005EB07
:10499000850101EB4511484A1144085C1DF80410DB
:1049A000884200D002E0641C062CECD300BF761CC9
:1049B000062C08D005EB850000EB45103E49084465
:1049C0008079B042DDD86D1C062C03D03B480078BE
:1049D0008542D4D9062C21D16D1E002709E005EBB4
:1049E000850000EB451034490844C05D0DF8070010
:1049F0007F1C062FF3D304208DF8080001208DF8CA
:104A00000900701EC0B28DF80A0002AA0321684690
:104A100003F05EFB01202E49086003E0AFF25C70FA
:104A200005F080F800BF2BA005F07CF8012034B021
:104A3000BDE8F08700BF00BFF9E770B52748FEF773
:104A4000A2FC0446002C35D00020A288216888549E
:104A500000BF2348007828B140F2EA2121A0226853
:104A600005F060F800BF00BF26681D480078D0B18F
:104A7000274805F057F800250FE0715D24481C30E9
:104A800005F050F8681C0A2190FBF1F201FB1200BE
:104A900010B91EA005F046F86D1CA088A842ECDCF9
:104AA0001AA005F03FF800BF2068FFF77AFD0B4819
:104AB000FEF783FC70BD00005E0200208C00002029
:104AC000004C0040410000208E0000201002002019
:104AD000F8000020CEDEC6A5C5E40A0020050020AF
:104AE000290000203C3C2D51554555452D4445425B
:104AF00055472D3E3E205B25645D5069BDD3CAD528
:104B0000B5BDB5C4CAFDBEDDA3BA25730A00000059
:104B1000AC38000808B501210820FCF76DFB202007
:104B2000ADF8000010208DF8030003208DF802007E
:104B300069461048FCF73EF80120ADF800006946D0
:104B40000C48FCF737F80220ADF800006946094828
:104B5000FCF730F820210748FCF7D9F80121054877
:104B6000FCF7D5F802210348FCF7D1F802A004F0C5
:104B7000D9FF08BD000C01400D202020202020205E
:104B80002020202020202020204C45445F436F6EB1
:104B90006669670A0000000001B502E00098401E47
:104BA000009000980028F9D108BD01B502E00098F6
:104BB000401E009000980028F9D108BD2DE9F04F63
:104BC000B7B08046894615469A46D026FE208DF815
:104BD00004008DF805008DF806008DF807006820A8
:104BE0008DF8080000240EE0409800EB400008EB30
:104BF0004000C4F10501415C601D01AA115401A9E6
:104C0000085C0644641C062CEEDB68208DF80F005F
:104C10008DF810909DF8100006448DF811509DF805
:104C2000110006446C1E0FE01AF804003330C1B2C4
:104C300005F10D00001B01AA115405F10D00001B28
:104C400001A9085C0644641E002CEDDA05F10E0093
:104C500001AA16541621401C11544FF47A70FFF724
:104C60009BFF0421FC48FCF752F84FF47A70FFF7E1
:104C700093FF2020F9490860012008600220091FE5
:104C80000860002404E001A9085D01F0CAFA641C70
:104C900005F10F00A042F6DA4FF6FF70FFF785FF2F
:104CA0004FF47A70FFF778FF0421EB48FCF731F8F6
:104CB0004FF47A70FFF770FF2020E849091F086061
:104CC0000120091D08600220091F086000BF0DF1C6
:104CD000040BE3480078D8B1E2A004F023FF0027DA
:104CE0000FE01BF80710E6A004F01CFF781C0A2157
:104CF00090FBF1F201FB120010B9E3A004F012FFE7
:104D00007F1C05F11000B842EBDCDFA004F00AFFC5
:104D100000BF05F1100037B0BDE8F08F2DE9F84F66
:104D20000446924600250020009000E06D1C605D66
:104D3000FE28FBD0681C205CFE28F7D0A81C205C55
:104D4000FE28F3D0E81C205CFE28EFD005F1080017
:104D500014F800B0CDA004F0E5FEBBF1D10F06D1F0
:104D6000CFA004F0DFFE4FF0FF30BDE8F88FBBF1BD
:104D7000930F0ED1002709E0A81DC01B205C0AEB91
:104D80004A01CD4A02EB4101C8557F1C062FF3D3DF
:104D900041E2BBF1910F7DD105F10D00205C33386C
:104DA000010605F10C00205C333801EB004105F1F0
:104DB0000B00205C333801EB002105F10A00205C78
:104DC000333808440090BD4A0098811A90427CD044
:104DD00010DCB0F5003F79D004DCC8B1B0F5803FFD
:104DE00075D145E0B6490844002871D0B0F5803F40
:104DF000F6D1C1E0B1F5003F6BD0B1F5403F69D0CD
:104E0000A1F5FA01891E002965D00529E8D18FE1B5
:104E100005F11100205C3338010605F11000205C1B
:104E2000333801EB004105F10F00205C333801EB12
:104E3000002105F10E00205C33380E184FEA1628C9
:104E400006F0FF0905F11100205C33389D49087018
:104E500005F11000205C3338487005F10F00205C2C
:104E60003338887005F10E00205C3338C8707DE15E
:104E700005F11100205C3338010605F11000205CBB
:104E8000333801EB004105F10F00205C333801EBB2
:104E9000002100E06BE105F10E00205C33380E18B4
:104EA0004FEA162806F0FF0905F11100205C33389F
:104EB0008449087105F11000205C3338487105F110
:104EC0000F00205C3338887106E07AE00AE049E19F
:104ED00038E09BE0F8E011E105F10E00205C33388A
:104EE000C87143E105F11100205C3338010605F17A
:104EF0001000205C333801EB004105F10F00205C0D
:104F0000333801EB002105F10E00205C33380E1818
:104F10004FEA162806F0FF0905F11100205C33382E
:104F20006849087205F11000205C3338487205F1B9
:104F30000F00205C3338887205F10E00205C333896
:104F4000C87213E105F10E00205C333805F10F0142
:104F5000615C333900EB01264FEA161806F00F09A1
:104F600005F10F00205C33385649087305F10E0037
:104F7000205C33384873F9E005F11000205C3338C9
:104F8000010405F10F00205C333801EB002105F12D
:104F90000E00205C33380E184FEA1638C6F30B09A2
:104FA00005F11000205C33384649887305F10F0085
:104FB000205C3338C87305F10E00205C3338087468
:104FC000D4E005F11000205C3338010405F10F0036
:104FD000205C333801EB002105F10E00205C3338F2
:104FE0000E184FEA16481FFA86F905F11000205CEA
:104FF00033383449487405F10F00205C3338887425
:1050000005F10E00205C3338C874AFE005F11000E4
:10501000205C3338010405F10F00205C333801EBCC
:10502000002105F10E00205C33380E184FEA1648B7
:105030001FFA86F905F11000205C33382149087504
:1050400005F10F00205C3338487505F10E00205C37
:10505000333888758AE0000000100140140C0140CC
:10506000290000203C3C2D52533438352D44454214
:1050700055472D53454E442D3E3E0D0A000000007D
:1050800025303278202020000D0A00000D20467ABD
:1050900075447128636F6E666967292320000000DC
:1050A000CAFDBEDDD6A1B7A2CBCDB3F6B4ED433D6C
:1050B000307844310A000000410000200000030263
:1050C00000FFFEFD1002002005F10E00205C3338C9
:1050D00005F10F01615C333900EB01264FEA163808
:1050E000C6F30B0905F10F00205C3338FE49C87583
:1050F00005F10E00205C3338087637E005F10E002C
:10510000205C333805F10F01615C333900EB012677
:105110004FEA162806F0FF0905F10F00205C33382E
:10512000F149487605F10E00205C333888761DE0A1
:1051300005F10E00205C333805F10F01615C333955
:1051400000EB01264FEA161806F00F0905F10F00D3
:10515000205C3338E449C87605F10E00205C333812
:10516000087703E0E1A004F0DDFC00BF53E0BBF1F1
:10517000970F39D105F10A00205C33380090009870
:10518000102817D006DC022826D004281ED00828B4
:1051900028D115E0202807D0402823D14FF496408D
:1051A000D44941F82A001EE04FF41650D14941F885
:1051B0002A0018E04FF49650CE4941F82A0012E038
:1051C0004FF41660CB4941F82A000CE04FF496608A
:1051D000C84941F82A0006E04FF41670C54941F865
:1051E0002A0000E000BF16E05946C3A004F09AFC74
:1051F0002F4604E0E15DC8A004F094FC7F1C0A2F58
:10520000F8D3E05D1628F5D1E15DC4A004F08AFC76
:105210006FF00100A9E50120A7E52DE9F041054661
:1052200000240026002700E0641C285DFE28FBD037
:10523000601C285CFE28F7D0A01C285CFE28F3D058
:10524000E01C285CFE28EFD002E0285D0644641CC8
:105250000B2CFAD3285D1628F7D1601E285C361A6D
:10526000F1B2601E285C814203D1601C40B2BDE8EF
:10527000F081AFF2E81004F055FCAAA004F052FC53
:1052800001F060F84FF0FF30F1E72DE9FF4F83B0F8
:10529000824616469846DDF84090002708E0F01B4D
:1052A000401EC00028FA00F001A9C855781C87B23A
:1052B000B742F4DB01AB3246CDF80090504604997A
:1052C000FFF77CFC9E48006804F0BEF804F0B2F8DA
:1052D000642190FBF1F201FB120000F16405284605
:1052E00001F037F902A801F027F8044600BFA346F1
:1052F00094480078F0B194A004F014FC002511E06B
:105300001BF80510AFF2882004F00CFC681C0A2181
:1053100090FBF1F201FB120018B9AFF2942004F0F7
:1053200001FC6D1CBDF808008542E9DBAFF2A82046
:1053300004F0F8FB00BF04F07DF8322190FBF1F29D
:1053400001FB120000F16405284601F002F9BDF8E6
:105350000800032836DABDF8080038B9AFF2D420C7
:1053600004F0E0FB7FA004F0DDFB26E0AFF2E420D8
:1053700004F0D8FB7FA004F0D5FB00BFA34685A0B6
:1053800004F0D0FB002510E01BF80510AFF2103040
:1053900004F0C8FB681C0A2190FBF1F201FB12002B
:1053A00010B981A004F0BEFB6D1CBDF80800854259
:1053B000EADB6BA004F0B6FB00BF4FF0FF3007B094
:1053C000BDE8F08F2046FFF728FF401C10BB00BF50
:1053D000A34670A004F0A6FB002510E01BF8051002
:1053E000AFF2643004F09EFB681C0A2190FBF1F2DE
:1053F00001FB120010B96CA004F094FB6D1CBDF809
:1054000008008542EADB56A004F08CFB00BF6FF079
:105410000100D4E7BDF80800C1B24A462046FFF7B4
:105420007DFC00F08FFF06F1100040B2C7E770B5B9
:1054300088B006460D461822604902A804F00CF810
:10544000002411E002A951F8240000F08AFF002393
:105450001A46132130460095FFF717FF401C10B184
:10546000012008B070BD641C062CEBD34FF0FF3058
:10547000F7E72DE9F04F97B005468B4614224F49C8
:10548000183112A803F0E8FF4C4A2C3207CA0FABC0
:1054900007C30027B946781E0E9000200D9001200A
:1054A0000C904FF00008464908704FF4165000F079
:1054B00058FFAFF2284004F035FB42A004F032FB65
:1054C000BDE0002003460246132100905846FFF736
:1054D000DCFE0746002F05DD4FF0000900200FA974
:1054E000009083E08CE0000010020020CEDEC6A514
:1054F000C5E40A0068000020D2ECB3A3B5C4BFD84D
:10550000D6C6C2EB433D253032782CB4EDCEF3B78E
:10551000B5BBD80A00000000202578002025780AB5
:1055200000000000435320646C74363435D0A7D19A
:10553000E9CAA7B0DC2CCAFDBEDDB6AAC6FA0A00CD
:10554000A4000020290000203C3C2D525334383563
:105550002D44454255472D41525241592D3E3E0D55
:105560000A000000646C74363435CEB4CAD5B5BDBB
:10557000D6A10A00646C74363435CAD5B5BDB3A45F
:10558000B6C8D0A1D3DA33B5C4B7C7B7A8D6A10A75
:10559000000000002020202020202020202020208B
:1055A00020202020000000000A2020202020202091
:1055B000202020202020202020000000F89F00082C
:1055C0008E000020BFAACABCD7D4CACAD3A6BBF1DA
:1055D000C8A1C4A3BFE9CFE0C1ACBDD3B5C4B5E792
:1055E000B1EDB5D8D6B70A20000000000C9831F80C
:1055F0001030012217212846FFF747FE0E901EE0CB
:10560000B81C00281BD109F101004FFA80F9F748B6
:10561000006803F019FFB9F1140F10DDAFF29450D8
:1056200004F080FAF2A004F07DFA12A951F82400E7
:1056300001F073FD4FF0FF3017B0BDE8F08F781C1C
:1056400000287FF43EAF002479E00027B94612A974
:1056500051F8240000F085FE6CE00020034602466D
:10566000132100905846FFF710FE0746002F46DD35
:105670004FF0000900202023012217210090284626
:10568000FFF703FE0E90C8464FF0010A19E04FF0F5
:1056900000080EE00AEB4A0005EB400010F8080095
:1056A00015F80810884200D006E008F1010000F06B
:1056B000FF08B8F1060FEDDB00BF0AF1010000F0B2
:1056C000FF0ADB480078824502DAB8F1060FDED126
:1056D000B8F1060F2ED0002609E0A85DD44909785C
:1056E00001EB410105EB41018855701CC6B2062E45
:1056F000F3DBCF480078401CCD4908701AE0B81C95
:10570000C0B909F101004FFA80F9B9F1140F11DDA8
:10571000AFF2886004F006FA12A850F82410C548C9
:1057200004F000FA12A951F8240001F0F6FC4FF041
:10573000FF3081E7781C00288FD1601CC4B2052C93
:1057400083DB4FF4165000F00CFEB9480078401E81
:10575000B7490870AFF2CC6004F0E4F9B4480178BE
:10576000B5A004F0DFF9B2480278B7A104A804F0AC
:10577000E9F901F04DF9C08800EB40004004000C4D
:1057800004A9039001F0BCF900246BE0611CB4A0F3
:1057900004F0C8F9002609E004EB440005EB4000E2
:1057A000815DB8A004F0BEF9701CC6B2062EF3DB12
:1057B000621CB6A104A804F0C5F901F029F9C0885B
:1057C000A100C91D484380B204A9039001F098F9D3
:1057D00004EB440005EB4000407904EB440105EB89
:1057E0004101097904EB440205EB4202D27804EB53
:1057F000440305EB43039B78CDE90032CDE9021069
:1058000004EB440005EB4000437804EB440015F83A
:105810001020A4A104A804F095F901F0F9F8C088BB
:10582000A1000831484380B204A9039001F068F94F
:10583000A44850F82410A4A004F074F9A14850F82A
:105840002420A5A104A804F07DF901F0E1F8C088A6
:10585000A1000931484380B204A9039001F050F936
:10586000601CC4B27248007884428FDB0120E3E6FA
:105870002DE9FF410446AFF2EC7004F053F99AA011
:1058800004F050F920780006617800EB0140A1781F
:1058900000EB0120E17845182E0AEFB23A46314676
:1058A00096A004F03FF920790006617900EB0140F1
:1058B000A17900EB0120E17945182E0AEFB23A46B2
:1058C000314699A004F02EF9207A0006617A00EBA7
:1058D0000140A17A00EB0120E17A45182E0AEFB2CF
:1058E0003A4631469BA004F01DF9607B217B00EB1A
:1058F00001252E0905F00F073A463146A0A004F015
:1059000011F9A07B0004E17B00EB0120217C45180C
:105910002E0BC5F30B073A463146A2A004F002F95C
:10592000607C0004A17C00EB0120E17C45182E0C7A
:10593000AFB23A463146A4A004F0F4F8207D00044A
:10594000617D00EB0120A17D45182E0CAFB23A46D7
:105950003146A8A004F0E6F8207EE17D00EB0125A9
:105960002E0BC5F30B073A463146ADA004F0DAF82A
:10597000A07E617E00EB01252E0AEFB23A46314649
:10598000B0A004F0CFF8207FE17E00EB01252E09C6
:1059900005F00F073A463146B2A004F0C3F894F878
:1059A000230094F8221094F8212094F82030CDE9B7
:1059B0000032CDE90210E37FA27F617FB1A004F045
:1059C000B1F894F8290094F8281094F82720CDE92C
:1059D0000021029094F8263094F8252094F82410A1
:1059E000B54804F09FF8BDE8FF810000A400002046
:1059F000D7D4B6AFBBF1C8A1B5D8D6B7C1D0B1ED39
:105A0000CAA7B0DC203936303020B2A8CCD8C2CA00
:105A1000B6CEB4E6D4DAB6E0B8F6B5E7B1EDB3E5A4
:105A2000CDBB20C7EBB3A2CAD4B8B4CEBB0A20000A
:105A30008E000020F4E20008D7DCB5E7B1EDCAFD26
:105A4000202564200A00000020546F74616C5F6D93
:105A500065746572735F6E756D3A20256420000071
:105A60000D20202020202020202020202020202049
:105A700020B5DA2564CCA8B5E7B1EDB5D8D6B72006
:105A80003A2020002530327820000000206D657417
:105A90006572732025642061646472657373203AB3
:105AA0000000000020202530327820253032782078
:105AB0002530327820253032782025303278202564
:105AC00030327800680000202020B2A8CCD8C2CAAA
:105AD0002564200A00000000204261756420726184
